:020000040800F2
:10000000C00C0020890100083F2300087D1F000864
:100010003D230008D5030008752E000800000000ED
:10002000000000000000000000000000F3270008AE
:100030002704000800000000F1270008F527000849
:10004000A3010008A3010008A3010008A301000800
:10005000A3010008A3010008A3010008A3010008F0
:10006000A3010008A3010008A3010008D9030008A8
:10007000A3010008A3010008E5030008F10300083C
:10008000A3010008A3010008A3010008A3010008C0
:10009000A3010008A3010008A3010008A3010008B0
:1000A000A301000875280008A3010008A3010008A7
:1000B000A3010008A3010008A3010008A301000890
:1000C000A3010008A3010008A3010008A301000880
:1000D000A3010008692E0008A3010008A30100087D
:1000E000A3010008A3010008A301000800F002F822
:1000F00000F03AF80AA090E8000C82448344AAF188
:100100000107DA4501D100F02FF8AFF2090EBAE885
:100110000F0013F0010F18BFFB1A43F0010318473B
:100120008C5B0000AC5B0000103A24BF78C878C13B
:10013000FAD8520724BF30C830C144BF04680C60ED
:10014000704700000023002400250026103A28BF35
:1001500078C1FBD8520728BF30C148BF0B60704739
:100160001FB51FBD10B510BD00F058F81146FFF7C0
:10017000F7FF02F091FE00F076F803B4FFF7F2FF0C
:1001800003BC00F07DF8000009488047094800479B
:10019000FEE7FEE7FEE7FEE7FEE7FEE7FEE7FEE737
:1001A000FEE7FEE704480549054A064B7047000094
:1001B00071280008ED000008C0060020C00C0020D7
:1001C000C0080020C00800204FF0000200B5134610
:1001D00094469646203922BFA0E80C50A0E80C5067
:1001E000B1F12001BFF4F7AF090728BFA0E80C5018
:1001F00048BF0CC05DF804EB890028BF40F8042B11
:1002000008BF704748BF20F8022B11F0804F18BF7D
:1002100000F8012B7047704770477047754600F033
:100220002BF8AE4605006946534620F00700854688
:1002300018B020B5FFF7B6FFBDE820404FF000062C
:100240004FF000074FF000084FF0000B21F00701BE
:10025000AC46ACE8C009ACE8C009ACE8C009ACE801
:10026000C0098D46704710B50446AFF300802046A4
:10027000BDE81040FFF781BF0048704760060020CE
:1002800001491820ABBEFEE72600020070470000BF
:1002900070B5044600688168C943C90717D18168F1
:1002A00021F00101816000F0C5FD05460AE000BFB4
:1002B00000F0C0FD401B022804D920688068C043BC
:1002C000C00706D020688068C043C007F0D0002077
:1002D00070BDA06A40F01000A062E06A40F001002A
:1002E000E062012070BD10B50146406A826A12F0DA
:1002F000500F05D0006A026BBDE810400846104759
:10030000816A41F40071816201688968C1F34241E8
:1003100007290CD1017B51B9816A21F48071816276
:10032000816AC90403D4816A41F00101816200F04D
:1003300095F910BD10B5406A816A41F040018162B3
:10034000C16A41F00401C16200F08AF910BD10B524
:10035000406A00F084F910BDF8B500260446009606
:1003600000688168C943C9072DD0816841F0010147
:100370008160164816490068B0FBF1F000E0401EAD
:1003800000900028FBD100F055FD054616E000BFA7
:1003900000F050FD401B022810D920688068C0433F
:1003A000C0070BD0A06A40F01000A062E06A40F0E5
:1003B0000100E06284F824600120F8BD20688068B4
:1003C000C043C007E4D10020F8BD00002800002091
:1003D00040420F00FEE70000014800F00FBB0000A4
:1003E00078000020014800F009BB000090010020C7
:1003F000014800F003BB00004C01002030B590F82C
:1004000040500124AC40C56B6C6004686360436875
:10041000102B036803D099600068C26030BD9A60F9
:100420000068C16030BD704772B6FEE730B4028824
:10043000130A124A13700378537043881B0A93708F
:100440008378D37083881B0A137100790C4B507129
:10045000AA2018700C20587000201D18145C401C35
:10046000C0B2AC700628F8D31972FF20587230BCA5
:100470000A220349034801F043BD00004100002067
:100480005406002004010020F8B50025044600951C
:1004900090F8240001280BD0012084F82400204685
:1004A000FFF7F6FE2046FFF757FF060002D050E0A8
:1004B0000220F8BDA06A20F4885040F00200A0623B
:1004C000022000F055FD25490968B1FBF0F040001D
:1004D00000E0401E00900028FBD12068816841F0B8
:1004E0000801816000F0A6FC074608E000F0A2FCCD
:1004F000C01B0A2803D920688068000715D420682B
:1005000080680007F2D42068816841F004018160AE
:1005100000F090FC074612E000F08CFCC01B0A289B
:100520000DD920688068400709D5A06A20F0020034
:1005300040F01000A06284F824500120F8BD20682B
:1005400080684007E8D4A06A20F0020040F0010073
:10055000A06284F824503046F8BD00002800002036
:10056000F8B50024009490F824202546012A12D0E2
:10057000012280F824204A681F23072A0DD206682A
:10058000776B521E02EB820293409F430B689340AD
:100590001F43776319E00220F8BD06680D2A0AD2CE
:1005A000376BD21F02EB820293409F430B6893404C
:1005B0001F43376309E0F76A0D3A02EB820293406A
:1005C0009F430B6893401F43F7620A68072306683E
:1005D0000A2A0AD3F7680A3A02EB420293409F4381
:1005E0008B6893401F43F76008E0376902EB4202D3
:1005F00093409F438B6893401F4337610A68102ADA
:1006000001D0112A20D1124B02689A4217D1936867
:100610001B0219D4936843F40003936009681029FE
:1006200012D10C490C4A0968B1FBF2F101EB8101CE
:10063000490000E0491E00910029FBD104E0816AD5
:1006400041F020018162012480F824502046F8BD49
:10065000002401402800002040420F0070477047EE
:10066000704700002DE9F0414FF0000704003D46BF
:100670007ED0A06A002628B9E66284F8246020466D
:1006800000F07EF82046FFF703FEA16AC90600D4F9
:1006900020B1A06A40F01000A06269E0A16A21F4D4
:1006A000885141F00201A1626268E169237B0A433B
:1006B00047EA43010A43A1684FF48077B94209D061
:1006C000012907D05FF0000194F814C0BCF1010FBC
:1006D00002D00AE03946F7E7F3B1A36A43F02003FA
:1006E000A362E36A43F00103E3622368D3F804C022
:1006F0002CF4694C4CEA010CC3F804C021688B68E7
:10070000DFF870C003EA0C0313438B60A168B942A1
:100710000BD0012909D00CE0DFF85CC0A3690CEB19
:1007200043330B4343F40061DFE7218A0D05A5F550
:1007300080152168CB6A23F470032B43CB622168B8
:1007400089680E4B1940914208D1E662A16A21F0F6
:10075000020141F00101A162BDE8F081A06A20F030
:10076000020040F01000A062E06A40F00100E06288
:100770000120F1E7FDF7E1FF00E0FFFFFE0E1FFFA4
:1007800070B586B000250646009501950295039543
:1007900000681A4988422ED11949886940F40070CE
:1007A0008861886900F400700490886940F0040052
:1007B00088618869694600F0040004901E2000905A
:1007C000032001900F4800F03BFA104C0E48C4E99A
:1007D00000058020C4E90250400020618000606173
:1007E0002020C4E90605204600F0B2F908B1FFF761
:1007F0001BFE3462666206B070BD0000002401403A
:10080000001002400008014008000240780000206B
:100810002DE9F047894604463B4900683B4F0E1DD1
:100820009046884201D0B84207D1306810F4702F4A
:1008300003D001252846BDE8F08794F8240001285C
:100840000CD0012084F824002046FFF785FD050028
:100850004FF0000004D084F82400EBE70220EAE720
:10086000A16A40F60162914341F48071A16221685E
:10087000B94218D1326812F4702F14D0A16A41F431
:100880008011A1623168490505D5A16A21F40051A2
:1008900041F48051A162A16AC9040AD5E16A21F03C
:1008A0000601E16206E0A26A22F48012A2624968AF
:1008B000E9E7E06284F82400216A15488862216A29
:1008C0001448C862216A1448086321686FF0020066
:1008D00008602068816841F4807181602168434626
:1008E0004A464C31206A00F061F920688168C1F302
:1008F00042410729816803D041F48011816099E762
:1009000041F4A001FAE70000002401400028014062
:10091000E70200084F0300083503000810B590F8FF
:1009200021100022022905D00421816380F82020B3
:10093000012010BD01680B6823F00E030B600168F5
:100940000B6823F001030B6090F84030C46B012169
:1009500001FA03F3636080F8211080F8202010462C
:1009600010BD000010B590F821100024022903D01A
:100970000421816301243DE001680A6822F00E022F
:100980000A6001680A6822F001020A601A4A0168D6
:10099000914201D1012121E0174A1432914201D143
:1009A00010211BE0144A2832914201D1891515E02B
:1009B000114A3C32914201D189140FE00E4A503263
:1009C000914202D14FF4803108E00B4A64329142E7
:1009D00002D14FF4801101E04FF08071064A083ACD
:1009E0005160012180F82110002180F82010416B16
:1009F00001B18847204610BD080002402DE9F05F94
:100A0000C16B0C6801680B68D0F840C0042202FA80
:100A10000CF2494DDFF824A1494E4A4FDFF828B1C6
:100A2000DFF828E122422CD05A072AD50A6892061C
:100A300003D40A6822F004020A600168A94201D1C5
:100A4000042219E0514501D1402215E0B14202D102
:100A50004FF4806210E0B94202D14FF480420BE0C3
:100A6000594502D14FF4802206E0714502D14FF47E
:100A7000800201E04FF080622F4908394A60C16A64
:100A80003BE04FF0020808FA0CF818EA040F4FF0A8
:100A900000094FF0010235D05FEA837832D50B6848
:100AA0009B0605D40B6823F00A030B6080F8212015
:100AB0000168A94201D1022219E0514501D1202249
:100AC00015E0B14202D14FF4007210E0B94202D1F8
:100AD0004FF400520BE0594502D14FF4003206E0CA
:100AE000714502D14FF4001201E04FF0007212493B
:100AF00008394A6080F82090816A00291AD0BDE840
:100B0000F05F0847082505FA0CF5254212D01B07AF
:100B100010D50B6823F00E030B6090F84010C36BE8
:100B200002FA01F15960826380F8212080F8209058
:100B3000016BE2E7BDE8F09F080002401C000240A4
:100B40003000024044000240580002406C00024065
:100B500030B528B308C8134914221944B1FBF2F187
:100B60008900C16310498163022141771A6843F605
:100B7000F0718A43D0E900142143D0E902452C43A7
:100B8000214304692143446921438469214311437A
:100B9000196000214163012242770177084630BD88
:100BA000012030BDF8FFFDBF0000024070B50446D3
:100BB00090F82000002501280CD0012084F82000A6
:100BC00094F821600020012E06D084F82000022530
:100BD000284670BD022070BD022684F82160A06303
:100BE0002068066826F0010606602046FFF706FC2E
:100BF000E06A00282068016802D041F00E0106E09A
:100C000021F0040101602068016841F00A010160DF
:100C10002068016841F001010160D9E770B5044620
:100C200000F008F90546601C02D00448007804442E
:100C300000F000F9401BA042FAD370BD1C00002058
:100C40002DE9F84FDFF8B8910024A9F1040B2346F1
:100C50000F2709F1040AABF1040EC9E00125A540F4
:100C60002A40AA427DD1674ED1F804C0ACEB0608F9
:100C7000B44532D014DCBCF1030F3AD009DCBCF12E
:100C8000000F2AD0BCF1010F1CD0BCF1020F31D1F2
:100C90001DE0BCF1110F17D0BCF1120F2AD119E0E1
:100CA000B8F5881F19D006DCB8F5803F15D0B8F527
:100CB000801F1FD111E0B8F5001F0ED0B8F5041F3A
:100CC00018D10AE0CB6815E0CB681B1D12E0CB6899
:100CD00008330FE0CB680C330CE08B682BB1012B91
:100CE0004FF0080303D0456104E0042302E00561EE
:100CF00000E00023FF2A01D8064601E000F10406C7
:100D00004FEA840501D9A5F12005D6F8008007FA3D
:100D100005FC28EA0C0803FA05F548EA0508C6F8B8
:100D200000804D68ED0062D5374DAE6946F0010692
:100D3000AE61AD6924F0030605F001050095334D61
:100D400006EB050CDCF80850A607360F07FA06F884
:100D500025EA0805DFF8B880404503D14FF00008C8
:100D600017E044E0DFF8AC80404502D14FF00108C5
:100D70000FE0DFF8A480404502D14FF0020808E000
:100D8000DFF89880404502D14FF0030801E04FF0B2
:100D9000040808FA06F848EA0508CCF808804D6807
:100DA000D9F80060ED024D4601D5164300E09643A8
:100DB0002E604D68DAF80060AD02554601D5164345
:100DC00000E096432E604D68DBF80060AD035D46A1
:100DD00001D5164300E096432E604D68DEF80060B2
:100DE000ED03754601D5164300E096432E60641C62
:100DF0000D682A46E5407FF431AFBDE8F88F00006A
:100E000008040140000011100010024000000140E1
:100E100000080140000C0140001001400014014096
:100E20008068084000D0012070470AB10161704716
:100E30000904FBE701488068704700001C0000209F
:100E40000248816802781144816070471C000020CC
:100E5000074810B5016841F010010160032000F05F
:100E600075F80F2000F006F800F024F8002010BDFF
:100E70000020024070B50D4D04464FF47A71287879
:100E8000B1FBF0F00A490968B1FBF0F000F0A4FBF7
:100E900048B9102C07D200222146501E00F036F827
:100EA00000206C6070BD012070BD00001C0000209F
:100EB000280000200C4808B5816941F001018161DA
:100EC000816901F001010091C16941F08051C16166
:100ED000C06900F0805000900448416821F0E06152
:100EE00041F00071416008BD001002400000014067
:100EF000002809DB00F01F02012191404009800019
:100F000000F1E020C0F8001170470000F0B40E4B73
:100F10001B680C46C3F30223C3F10705042D00D957
:100F20000425191D072901D2002300E0DB1E01263C
:100F300006FA05F1491E214099409E40761E164052
:100F40003143F0BC01F097BF0CED00E0064900F022
:100F5000070208684FF6FF03184040EA0220034AE0
:100F600010430860704700000CED00E00000FA0537
:100F700010B501460020234C012922D0022939D086
:100F800010291DD161682268D20119D51E48C1F30C
:100F90008342C903805C0AD561681B4AC1F34041A2
:100FA000921E515C194AB2FBF1F1484301E0184925
:100FB00048436168490203D440000321B0FBF1F0CB
:100FC00010BD226AC2F30121012903D1920701D584
:100FD000C80310BD022905D1626A920702D549F6FD
:100FE000404010BD0329FCD121688903F9D54FF297
:100FF000244010BD00F02AF96168C1F38131491C19
:101000004900DBE700100240543B000800127A0060
:1010100000093D002DE9F84305460078354CC0072E
:1010200054D0E0690026C00008D4E06940F0805048
:10103000E061E069012600F0805000902E480168D0
:10104000C90512D40168804641F480710160FFF740
:10105000F1FE074605E000BFFFF7ECFEC01B642869
:1010600023D8D8F80000C005F6D5206A10F44070E7
:1010700021D0A98801F4407181421CD0206A1F4907
:10108000012220F440700A6000220A602062C0073A
:1010900011D0FFF7CFFE074641F2883808E000BFC5
:1010A000FFF7C8FEC11B414502D90320BDE8F88304
:1010B000206A8007F4D5206A696820F440700843EC
:1010C00020621EB1E06920F08050E061287880073E
:1010D00005D56068A96820F440400843606028781E
:1010E000C00605D56068E96820F4800008436060A8
:1010F0000020DBE700100240007000404004424244
:101100002DE9F0470F46050061D0434E306800F0EE
:101110000700B84209D2306820F007003843306039
:10112000306800F00700B84251D128683B4C810775
:1011300012D5400703D5606840F4E060606028780D
:10114000000703D5606840F4605060606068A9687B
:1011500020F0F000084360602878C00728D0686855
:10116000012810D02168022810D0890700292EDA22
:10117000616821F0030101436160FFF75BFE804677
:1011800041F288390DE021688903EFE78901EDE735
:10119000FFF750FEA0EB0801494502D90320BDE846
:1011A000F0876068696800F00C00B0EB810FEFD148
:1011B000306800F00700B8420BD9306820F0070013
:1011C00038433060306800F00700B84201D0012099
:1011D000E5E72878400705D56068E96820F4E06015
:1011E000084360602878000706D56068296920F404
:1011F000605040EAC100606000F038F86168084A59
:10120000C1F30311515CC8400649086006480068F4
:10121000FFF730FE0020C2E700200240001002402D
:10122000643B0008280000202000002004480549F5
:1012300000684968044AC1F30221515CC840704704
:101240002800002000100240743B000804480549B3
:1012500000684968044AC1F3C221515CC840704724
:101260002800002000100240743B00080E4A51681C
:101270000E4801F00C03042B11D0082B0FD10C48A1
:10128000C1F38343C903C05C0AD55168084AC1F35E
:101290004041921E515C054A5043B0FBF1F070474B
:1012A00004494843704700000010024000127A00D1
:1012B000423B000800093D002DE9F84F040070D0C2
:1012C0002078C04DC00749D06868C0F3810001286C
:1012D00007D06868C0F38100022809D16868C0039C
:1012E00006D52868800339D560680028E7D035E046
:1012F0006068B0F5803F0BD010B1B0F5A02F11D0D1
:10130000286820F480302860286820F4802002E0DB
:10131000286840F480302860606890B1FFF78AFD4B
:1013200006460AE0286840F480202860F0E700BF05
:10133000FFF780FD801B642873D828688003F7D5E9
:101340000CE0FFF777FD064605E000BFFFF772FDF2
:10135000801B6428F0D828688003F7D420789A4E40
:1013600080074FF001094FF0000839D5686810F088
:101370000C0F07D06868C0F38100022809D16868A3
:10138000C00306D42868800714D52069012808D135
:1013900010E02069B0B1C6F80090FFF74BFD07469A
:1013A00005E00AE1FFF746FDC01B0228C4D8286803
:1013B0008007F7D52868616920F0F80040EAC1008D
:1013C00028600DE0C6F80080FFF734FD074604E012
:1013D000FFF730FDC01B022823D828688007F7D408
:1013E000207800072CD57948A169D9B1C0F80090C0
:1013F000FFF720FD074604E0FFF71CFDC01B022895
:101400000FD8686A8007F7D571484FF4FA51006821
:10141000B0FBF1F0009000BF0098411E0091FAD29D
:101420000EE080E0C0F80080FFF704FD074604E00E
:10143000FFF700FDC01B022875D8686A8007F7D443
:101440002078400760D5E8690027C00008D4E86923
:1014500040F08050E861E869012700F0805000907A
:101460005C480168C90513D40168834641F4807162
:101470000160FFF7DFFC824606E000BFFFF7DAFC01
:10148000A0EB0A0064284ED8DBF80000C005F5D5B3
:10149000E06801280AD008B1052813D0286A20F096
:1014A00001002862286A20F0040002E0286A40F067
:1014B00001002862E06841F2883B98B1FFF7BAFC6E
:1014C00082460BE0286A40F004002862EEE700BF85
:1014D000FFF7B0FCA0EB0A0159455AD8286A8007EB
:1014E000F6D50CE0FFF7A6FC824605E0FFF7A2FC6C
:1014F000A0EB0A0159454CD8286A8007F6D41FB1E1
:10150000E86920F08050E861E06988B36968C1F358
:101510008101022944D00228C6F8608004D0FFF778
:1015200089FC044638E034E0FFF784FC074604E019
:10153000FFF780FCC01B02282BD828688001F7D455
:10154000206AB0F5803F05D16868A16820F40030BA
:1015500008436860D4E908010843696821F47411FC
:1015600008436860C6F86090FFF764FC044606E034
:1015700025E000BFFFF75EFC001B022809D82868A1
:101580008001F7D51BE000BFFFF754FC001B0228C9
:1015900002D90320BDE8F88F28688001F4D40EE05A
:1015A0000128F7D06868226A00F48031914204D1A2
:1015B000616A00F47010884201D00120EAE700203F
:1015C000E8E700000010024000004242800442426E
:1015D000280000200070004010B5401EB0F1807F50
:1015E00001D3012010BD4FF0E02460610F2160178E
:1015F00001F041FC0020A06107202061002010BD07
:101600007047704770B590F83C20012A26D001241D
:1016100080F83C40022280F83D2003685A689D68AB
:1016200022F070060A6832435A600D4B02689A42F3
:1016300008D0B2F1804F05D00A4B9A4202D00A4B33
:101640009A4204D1496825F080031943916080F8DB
:101650003D40002180F83C10084670BD022070BD5E
:10166000002C0140000400400008004010B50400B8
:1016700003D094F83D0010B107E0012010BD002018
:1016800084F83C00204600F01FF8022084F83D005A
:10169000211D206801F0F4F8012084F8460084F848
:1016A0003E0084F83F0084F8400084F8410084F84C
:1016B000420084F8430084F8440084F8450084F82C
:1016C0003D00002010BD000008B500680B498842AD
:1016D00012D10B48816941F4006181618069002267
:1016E00000F40060009011461920FFF70FFCBDE8E0
:1016F00008401920FFF7FCBB08BD0000002C01408A
:101700000010024090F83D10012901D001207047DF
:10171000022180F83D100168CA6842F00102CA60E7
:1017200000680B49884208D0B0F1804F05D00949C4
:10173000884202D00849884204D1816801F007013B
:10174000062903D0016841F00101016000207047C3
:10175000002C0140000400400008004070B5044621
:1017600090F83C000025012817D0012684F83C6041
:10177000022084F83D002068826822F0770222F47B
:101780007F4282600868502838D00DDC20284FD076
:1017900005DC90B3102811D14AE0022070BD30283A
:1017A00046D040280AD13BE060282FD070280DD0C9
:1017B000B0F5805F03D0B0F5005F12D0012584F84A
:1017C0003D60002084F83C00284670BDCB68D1E91C
:1017D0000121206801F090F82068816841F07701CC
:1017E00009E0CB68D1E90121206801F085F8206883
:1017F000816841F480418160E1E719E0CA68496885
:10180000206801F08BF85021206806E0CA6849681A
:10181000206801F094F86021206801F077F8CEE7A5
:10182000CA684968206801F079F840212068F4E727
:10183000226801461046F0E770472DE9F041044662
:101840000068C66805694FF00007A90713D5B107FE
:1018500011D5F91E01610120207720688069800779
:10186000204602D0FFF7E8FF04E000F07EF82046B3
:1018700000F07CF82777680716D5700714D5216823
:101880006FF004000861022020772068806910F45E
:10189000407F204602D0FFF7CFFF04E000F065F85C
:1018A000204600F063F82777280715D5300713D5B1
:1018B00021686FF008000861042020772068C06963
:1018C0008007204602D0FFF7B7FF04E000F04DF894
:1018D000204600F04BF82777E80616D5F00614D519
:1018E00021686FF010000861082020772068C06927
:1018F00010F4407F204602D0FFF79EFF04E000F086
:1019000034F8204600F032F82777E80708D0F007CF
:1019100006D021686FF001000861204600F028F829
:10192000280608D5300606D521686FF080000861CA
:101930002046FFF765FE680608D5700606D52168C3
:101940006FF040000861204600F0D2F8A8060AD5E2
:10195000B00608D521686FF0200008612046BDE878
:10196000F041FFF74EBEBDE8F081704770470000C0
:101970002DE9F0474E4988427ED100F001FB4D4DE4
:10198000E88801F01EFD00224B4B01F095FB4B4F08
:101990004FF0663632463B4601F026FD0022484BAA
:1019A00001F08AFB0022474B01F01EFD01F0A2FA74
:1019B000A5F11404E06001F0FFFEDFF80C810022C5
:1019C000434601F00FFE414A414B01F075FBDFF841
:1019D000049100224B4601F007FD01F0C5FCC0B2A6
:1019E000DFF8F4A06070142801D8002200E0012282
:1019F00080215046FFF719FAA08801F0CBFF374944
:101A000001F006FF01F0D8FE32463B4601F0ECFC47
:101A10006FF0050202F04EF80022314B01F0E4FCB9
:101A200001F068FA206101F0C7FE0022434601F090
:101A3000D9FD2C4A2C4B01F03FFB00224B4601F014
:101A4000D3FC01F091FCC0B2A070142801D8002290
:101A500000E0012240215046FFF7E7F923480178D2
:101A6000082914D0002205291BD0042919D0217877
:101A700001291BD1017800E018E00E48FEF7D6FCE2
:101A80005046BDE8F04701222021FFF7CEB9A988D2
:101A90000229ECD2217811B100212170E7E7012160
:101AA000FBE7A9880229E2D90270E0E7BDE8F087E8
:101AB000BC0000201400002000FEAF4066660A4013
:101AC00000005E400080674000000840343333333C
:101AD0003333F33F000059400008014000F07F45D8
:101AE00000805240989999999999F13F40000020BF
:101AF0007047704770470000F8B5016804460868F1
:101B0000CA684B6910F00F0F4FF0000559D003F071
:101B1000010602F49077374365D0C10705D0D1059F
:101B200003D5616C41F001016164410705D5D90716
:101B300003D0616C41F002016164810705D5D907CA
:101B400003D0616C41F004016164010707D502F024
:101B50002001314303D0616C41F008016164616C84
:101B600000293AD0800604D5900602D5204600F020
:101B7000D2FF20684069616CC0F38010090700D46F
:101B800060B3204600F092FF20684069400621D5EE
:101B90002068143050E8001F21F0400140E8001296
:101BA000002AF5D1E06BA8B16D494163E06BFEF707
:101BB000D9FE002811D0E06B416B01B0BDE8F040C8
:101BC000084783060FD593060DD52046BDE8F8409B
:101BD00000F0A1BF2046FFF78DFFF8BD2046FFF7BC
:101BE00089FF6564F8BD266B2023012E7CD1C606D3
:101BF0007AD5D60678D508684868009048694FF0CD
:101C00000206400640D5E16B086840680004000CFD
:101C1000E8D0A28D8242E5D9E085886920282DD0C0
:101C200020680C3050E8001F21F4807140E8001259
:101C3000002AF5D12068143050E8001F21F001017E
:101C400040E80012002AF5D12068143050E8001F47
:101C500021F0400140E80012002AF5D184F842301A
:101C6000256320680C3050E8001F21F0100140E887
:101C70000012002AF5D1E06BFEF750FE6663A08DDE
:101C8000E18D401A81B22AE0A08DE18D401A81B227
:101C9000E08D0028A6D00029A4D022680C3252E89A
:101CA000000F20F4907042E80007002FF5D1206863
:101CB000143050E8002F22F0010240E80027002FE6
:101CC000F5D184F84230256320680C3050E8002FAD
:101CD00022F0100240E80023002BF5D16663204675
:101CE000FFF707FFF8BDFFE705062BD5150629D539
:101CF00094F841002128F5D1A068B0F5805F01D1AA
:101D00002069B0B1206A411C2162216800784860D6
:101D1000E08C401E0004000CE084E3D12068C16820
:101D200021F08001C1602068C16841F04001C160BC
:101D3000D8E7206A0088C0F308004860206A801C49
:101D40002062E5E74006CDD55006CBD5CA682046CF
:101D500022F04002CA6084F8413000F00DF9C1E77A
:101D60006329000870B5040004D094F841000025F0
:101D700010B106E0012070BD84F84050204600F00C
:101D800023F8242084F841002068C16821F4005120
:101D9000C160204600F020FF2068016921F49041D5
:101DA00001612068416921F02A0141612068C16810
:101DB00041F40051C1606564202084F8410084F83A
:101DC00042006563002070BDF0B585B00024064672
:101DD000009401940294039400682D49884254D1E0
:101DE0002C48816941F480418161816901F480411D
:101DF0000491816941F0040181618069264D00F000
:101E0000040004904FF40070009002200190032021
:101E1000039069462846FEF713FF2815CDE9000414
:101E2000694628460294FEF70BFF1D4D1B4880278C
:101E3000C5E90004C5E902472C616C61AC61284624
:101E4000EC61FEF785FE08B1FEF7EEFAF5636E620F
:101E5000134D12484435143801C5102091C510485F
:101E600045F8104944306C61AC61EC61FEF770FEDE
:101E700008B1FEF7D9FAB5630022114625206E623B
:101E8000FFF744F82520FFF733F805B0F0BD000058
:101E90000038014000100240000801405800024094
:101EA0004C01002090F84230202B01D002207047D6
:101EB00021B11AB10023036300F0EABE012070478C
:101EC0000B4910B5884211D10A480A4900220088FE
:101ED000891F40BA888020210748FEF7A6FFBDE889
:101EE0001040032203490248FFF7DCBF10BD000089
:101EF0000401002006000020000801407047000097
:101F000070B5044690F84100202801D0022070BD31
:101F100049B342B32162A284E28400206064212399
:101F200084F84130A56B114BAB62A56B104BEB6293
:101F3000A56B104B2B63A36B5863256813462A1DB2
:101F4000A06BFEF733FE21686FF040000860206848
:101F5000143050E8001F41F0800140E80012002AD0
:101F6000F5D1002070BD012070BD0000612A00087D
:101F7000A32A00087329000870477047FEE7000095
:101F800070B5554C0020554D207502212846FEF7AE
:101F900047FF207018B96078012800D12075022110
:101FA0002846FEF73DFF60704FF400663146284634
:101FB000FEF736FFA07020B9E078012801D1022099
:101FC000207531462846FEF72BFFE0700821284691
:101FD000FEF726FF207120B96079012801D1032086
:101FE000207508212846FEF71BFF60714FF400762C
:101FF00031462846FEF714FFA07120B9E079012888
:1020000001D10420207531462846FEF709FFE07112
:1020100020212846FEF704FF207220B9607A0128AB
:1020200001D10520207520212846FEF7F9FE6072B7
:1020300010212846FEF7F4FEA07220B9E07A0128AC
:1020400001D10620207510212846FEF7E9FEE07236
:102050004FF4807631462846FEF7E2FE207320B921
:10206000607B012801D10720207531462846FEF704
:10207000D7FE607340212846FEF7D2FEA07320B938
:10208000E07B012801D10820207540212846FEF779
:10209000C7FEE07380212846FEF7C2FE207420B9F7
:1020A000607C012801D10920207580212846FEF797
:1020B000B7FE0B4D607431462846FEF7B1FEA074A2
:1020C00020B9E07C012801D10A202075314628463C
:1020D000FEF7A6FEE07470BD2C000020000C01404D
:1020E000000801403EB500212048009101911E4AA0
:1020F0000291026092158260012505730175042426
:102100004FF460220461C2614160FEF7ABFA08B18E
:10211000FEF78AF906200095CDE90150694613487B
:10212000FEF71EFA08B1FEF77FF902200090019039
:1021300069460E48FEF714FA08B1FEF775F9032058
:102140000090019069460948FEF70AFA08B1FEF7C7
:102150006BF90094694605480194FEF701FA0028DE
:1021600001D0FEF761F93EBD002401404800002087
:10217000114808B5416941F00101416140690022FF
:1021800000F00100009011460B20FEF7BFFE0B206F
:10219000FEF7AEFE002211460E20FEF7B7FE0E201F
:1021A000FEF7A6FE002211460F20FEF7AFFEBDE8A7
:1021B00008400F20FEF79CBE001002402DE9F043BE
:1021C00085B00024314800940194029403948169FD
:1021D00041F020018161816901F020010491816950
:1021E00041F004018161816901F004010491816978
:1021F00041F0080181618069DFF8949000F00800E7
:10220000049001224FF487514846FEF70EFEDFF896
:1022100084804FF47047002239464046FEF705FEA1
:1022200000224FF400614846FEF7FFFD08200090B1
:102230000320019069464846FEF702FD4FF4C7505F
:1022400001250226CDE90005CDE90246694648464A
:10225000FEF7F6FC40F6FA30CDE900046946404648
:102260000294FEF7EDFC00970396CDE90154694610
:102270004046FEF7E5FC2802CDE9000469464846E1
:102280000294FEF7DDFC05B0BDE8F08300100240CB
:1022900000080140000C014010B586B00024184829
:1022A00000940194029403940494144905940160E9
:1022B00041F61F41C0E9011440F2E731C0E90314BF
:1022C00044618461FFF7D2F908B1FEF7ADF84FF42D
:1022D0008050009069460A48FFF740FA08B1FEF7BF
:1022E000A3F8049404A906480594FFF78BF9002885
:1022F00001D0FEF799F806B010BD0000002C014097
:10230000BC0000200C4810B50A4901604FF4E131CF
:102310004160002181600C22C160C0E9041281612A
:10232000C161FFF71FFD002803D0BDE81040FEF794
:102330007BB810BD0038014004010020FEE7FEE735
:1023400030B40021084B0A465FF0000003EBC004E4
:10235000401CC0B262548028F8D3491CC9B2082975
:10236000F2D330BC00F0CAB8D401002030B101284B
:1023700007D100215FF0A70000F0F8B90021A620E6
:10238000FAE7704710B558B1012810D10021C020DC
:1023900000F0ECF90021A020BDE8104000F0E6B903
:1023A0000021C82000F0E2F90021A120F4E710BDCF
:1023B00030B5CC0801F0070301259D40EBB2064D76
:1023C00005EBC005C808285C0AB1184302E063EABF
:1023D0000000C043285530BDD401002070B5424DE7
:1023E0004FF48054002221462846FEF71EFDC820E7
:1023F000FEF714FC012221462846FEF716FD0021B7
:10240000AE2000F0B3F90021084600F0AFF900213A
:10241000102000F0ABF90021402000F0A7F90021C6
:10242000812000F0A3F90021CF2000F09FF90021C6
:10243000A12000F09BF90021C82000F097F90021AD
:10244000A62000F093F90021A82000F08FF90021C8
:102450003F2000F08BF90021D32000F087F9002104
:10246000084600F083F90021D52000F07FF9002113
:10247000802000F07BF90021D92000F077F90021BD
:10248000F12000F073F90021DA2000F06FF900214B
:10249000122000F06BF90021DB2000F067F9002129
:1024A000402000F063F90021202000F05FF90021B6
:1024B000022000F05BF900218D2000F057F9002187
:1024C000142000F053F90021A42000F04FF900215E
:1024D000A62000F04BF9FFF733FFBDE87040002164
:1024E000AF2000F043B9000000080140024601207F
:1024F00000E05043491EC9B2FBD2704770B5114E7F
:10250000002400BF04F1B000C0B2002100F02EF999
:102510000021084600F02AF90021102000F026F9D9
:102520005FF0000506EBC5000121005D00F01EF91B
:102530006D1CEDB2802DF5D3641CE4B2082CE1D300
:1025400070BD0000D40100202DE9FC4F1C460E4652
:1025500082468B460190082B0DD0600700D00120E9
:1025600000EBD40061084843C0B28146203AD0B2A3
:10257000009000204BE00620F7E7082C13D00C2C2D
:1025800018D0102C1BD0182C44D10098234900EBF4
:10259000C00000BF01EB8001002711F80850E807D8
:1025A00012D00B9A13E000981D4900EB400001EB9C
:1025B0004001F1E700981B4900EB4000EAE71A49A7
:1025C000009801EB0011E7E70B9828B30022314691
:1025D0005046FFF7EDFE761C7F1C6D08FFB2F6B289
:1025E000082FDCD30AF1010000F0FF0A082C0AD002
:1025F0000199AAEB0100B0EB540F04D10BF10800D4
:102600008A4600F0FF0B08F101005E46C0B280462A
:102610004845B2D3BDE8FC8F0122D8E7084800083E
:102620007C3B0008A43D0008184200082DE9FF4F3C
:1026300081B08146009098460E468B46580701D0DF
:10264000012100E0002101EBD80000FB08FA002482
:1026500048E000BFB8F1100F12D0B8F1180F14D035
:10266000B8F1200F19D0B8F1400F3DD1214903989E
:1026700001EB40200027055DE80714D00E9A15E015
:102680001D49039801EB4010F4E70398194900EB4A
:10269000C000C83901EBC000ECE716490398803947
:1026A00001EBC010E6E70E9808B300223146484619
:1026B000FFF77EFE761C7F1C6D08FFB2F6B2082F76
:1026C000DAD309F10100009900F0FF09A9EB01013B
:1026D000414505D10BF10800DDF8009000F0FF0B3B
:1026E0005E46641C5445B5D305B0BDE8F08F0122A9
:1026F000DCE70000AC5A0008645500082DE9F84FEB
:102700000025DDE90A691F4692468B468046082E61
:1027100000D1022500241CE0381B401EC1B20A2053
:10272000FFF7E4FEBAFBF0F00A21B0FBF1F201FB87
:102730001200CDF8009080B13030C2B205EB5601E6
:1027400001FB0480C0B233465946FFF7FDFE641C0E
:10275000E4B2BC42E0D3BDE8F88F05EB560101FBC3
:102760000480C0B233463022EEE700002DE9F04786
:102770001E4D06464FF4804A09B1012200E00022B6
:1027800051462846FEF751FB4FF48058002241463F
:102790002846FEF74AFB00244FF400494FF4005747
:1027A000002239462846FEF740FB300601D50122BB
:1027B00000E0002249462846FEF737FB0122394651
:1027C0002846FEF732FB7006641C060EE4B2082CA5
:1027D000E6D3012241462846FEF727FB514628460C
:1027E000BDE8F0470122FEF720BB0000000C0140CD
:1027F00070477047FEF724BB30B593B02821684678
:10280000FDF7E2FC14210AA8FDF7DEFC00250120FB
:102810000F9510951195010412958DE823000490F1
:102820004FF4E010CDE90810022407946846FEF743
:1028300043FD08B172B6FEE70AA90F2081E8310016
:102840004FF48060CDE90D0502210AA8FEF758FC7F
:1028500008B172B6FEE74FF4004011900F940FA834
:10286000FEF7D8FB002801D072B6FEE713B030BDEA
:10287000704700000148FEF7E0BF0000BC000020E8
:10288000F0B50268194B1A4C1A4D4FF08047984228
:1028900005D0B84203D0A04201D0A84203D122F013
:1028A00070064A683243984205D0B84203D0A0422D
:1028B00001D0A84203D122F44074CA6822434C6973
:1028C00022F08002224302608A68C2620A68826241
:1028D000984201D109690163012141610169C90778
:1028E00003D0016921F001010161F0BD002C01401C
:1028F000000400400008004010B5846842EA03224A
:1029000024F47F440A432243826010BD826822F08F
:1029100070020A4342F007018160704710B5036AF4
:10292000046A24F001040462846924F0F00444EA97
:10293000021423F00A020A438461026210BD10B53A
:10294000036A046A24F010040462846923F0A0037B
:1029500024F4704444EA023243EA011182610162C4
:1029600010BD10B5406A0021C185C184FFF7C2F8CF
:1029700010BD70B5446A2068406994F84110C0F3F6
:10298000C0100025212904D118B1E584204600F0AB
:10299000B4F82068406994F84210C0F380102229EE
:1029A00004D118B1E585204600F080F8606C40F055
:1029B000100060642046FFF79DF870BD10B5014619
:1029C000406A096809684FF0000289062ED4C28562
:1029D00001680C3151E8003F23F4807341E8003472
:1029E000002CF5D10168143151E8003F23F00103B8
:1029F00041E80034002CF5D10168143151E8003F62
:102A000023F0400341E80034002CF5D1202180F868
:102A10004210016B012909D101680C3151E8003FD6
:102A200023F0100341E80034002CF5D14263016B20
:102A3000012902D0FFF744FA10BD818DFFF759F844
:102A400010BD10B5406A01214163016B012902D01C
:102A5000FFF754FA10BD818D4908FFF74AF810BD01
:102A600010B50146406A09680968890616D4002134
:102A7000C1840168143151E8002F22F0800241E83E
:102A80000023002BF5D101680C3151E8002F42F0F2
:102A9000400241E80023002BF5D110BDFFF76CFA8E
:102AA00010BD10B5406AFFF768FA10BD01680C311F
:102AB00051E8002F22F4907241E80023002BF5D159
:102AC0000168143151E8002F22F0010241E800238F
:102AD000002BF5D1016B012909D101680C3151E8B6
:102AE000002F22F0100241E80023002BF5D1202115
:102AF00080F8421000210163704701680C3151E8F1
:102B0000002F22F0C00241E80023002BF5D1202144
:102B100080F84110704708B590F84210222901D082
:102B2000022008BD82684FF480539A4201D10169A6
:102B300021B1816A9A421BD04AB10AE00268816AD7
:102B40005268C2F308020A80816A891C08E002699F
:102B500072B10268526802F07F020A70816A491CF1
:102B60008162C18D491E0904090CC18503D01BE097
:102B700002685268F1E70168CA6822F02002CA6060
:102B80000168CA6822F48072CA6001684A6922F04A
:102B900001024A61202180F8421000214163026B4A
:102BA000012A03D0FFF78CF9002008BD01630168FA
:102BB0000C3151E8002F22F0100241E80023002BD5
:102BC000F5D101680A68D20602D50A684968009101
:102BD000818DFEF78EFFE7E770B504460068016956
:102BE000E26821F44051114301612169A068084362
:102BF000616908432168CA6841F20C639A43024341
:102C0000CA6020684169A26921F4407111434161A1
:102C10001E492068884202D1FEF718FB01E0FEF74A
:102C200005FB00EBC00101EB00126068642180002D
:102C3000B2FBF0F3B3FBF1F36FF018067343B2FB92
:102C4000F0F5B2FBF0F605EB8305322303EB051537
:102C5000B5FBF1F5B6FBF1F605F0F00505EB061551
:102C6000B2FBF0F6B2FBF0F0B0FBF1F06FF018023F
:102C7000504306EB800003EB0010B0FBF1F021683D
:102C800000F00F002844886070BD0000003801404B
:102C900038B5816204468285002013466064222292
:102CA00084F84220E56B1B4AAA62E56B1A4AEA6285
:102CB000E56B1A4A2A63E26B50630A462168E06BAF
:102CC000091DFDF773FF20680168406800902069C6
:102CD00048B120680C3050E8001F41F4807140E892
:102CE0000012002AF5D12068143050E8001F41F08E
:102CF000010140E80012002AF5D12068143050E8A4
:102D0000001F41F0400140E80012002AF5D10020E8
:102D100038BD0000BD290008432A000873290008B7
:102D200010B5FFF75BFB0020FFF720FB0020FFF74B
:102D300029FBBDE81040FFF7E1BB00007CB5012492
:102D400010232022002111200094FFF76FFC212284
:102D50001023002110460094FFF768FC1023222264
:102D6000002131200094FFF761FC10232322002171
:102D700041200094FFF75AFC10253848CDE9005453
:102D80000278022300215B20FFF7B8FC10232522E4
:102D900000216B200094FFF7D7FB11211023142290
:102DA00008460094FFF742FC102315221121212030
:102DB0000094FFF73BFC10232222112131200094C4
:102DC000FFF734FC10232322112141200094FFF748
:102DD0002DFC2348CDE900540278022311215B2009
:102DE000FFF78CFC1023252211216B200094FFF7A4
:102DF000ABFB10231222232111200094FFF716FCB5
:102E000010231322232121200094FFF70FFC10230D
:102E10000B22232131200094FFF708FC10231F22EE
:102E2000232141200094FFF701FC002410231F22DE
:102E300023215B200094FFF7F9FB0A482B4600781A
:102E4000009440B10B2223215B20FFF7EFFBBDE88C
:102E50007C40FFF753BB1F22F5E700000100002074
:102E600002000020000000200148FEF745BE0000DF
:102E700004010020FEE70907090E002804DB00F129
:102E8000E02080F80014704700F00F0000F1E0200F
:102E900080F8141D70470000FDF7DAFFFFF7ACFC67
:102EA000FFF78CF9FFF764F9FFF71CF9FFF7F4F966
:102EB000FFF728FA0B48FDF7E7FA04220A49094808
:102EC000FDF7A6FC0948FEF71DFCFFF729FF0649A0
:102ED00003220E390648FEF7E5FF00BFFFF72EFF7D
:102EE000FCE700004800002014000020BC00002087
:102EF0000401002021F00042A2F16052B2F5801FCF
:102F000001F0004328BFD2F17F6C0BD95FEA001CAF
:102F100043EAC20242EB507018BF704728BF20F04E
:102F200001007047B2F5801FBCBF184670474FEADA
:102F3000410C1CF5001F02D2084600F084BD70B59C
:102F400000F0FCFA00000089FFF7F6BF4FF00040E8
:102F5000A0F580007047000010B591EA030F48BF4C
:102F600083F0004300F14683841A71EB030C05D211
:102F7000121943EB0C03001B61EB0C01DFF824E199
:102F80004FEA1154A4EB135C1EEA430F18BF9EEAEC
:102F9000445F73D023EA0E03DCF1200E21EA0451D2
:102FA00043F4801332D322FA0CFE10EB0E0023FA06
:102FB0000CFE41EB0E01CCF1200E03FA0EFE10EBDD
:102FC0000E0051F10001B1F5801FCCF1200E32D27C
:102FD00001EB045112FA0EF2BDE8104058BF7047E1
:102FE000401C38BF5FEA420218BF7047002814BF78
:102FF00020F0010041F100014FEA410313F5001FE9
:1030000038BF7047A1F1C04100F0E6BA012A43EB96
:103010000302ACF1200CDCF11F0E32BF4FF0000EAA
:1030200023FA0CF310EB030041EB0451B4EB115FF6
:10303000D0D0A1EB045101F5801149085FEA3000BE
:1030400001EB04510ED350F1000038BF12FA0EFE0E
:1030500008D1BDE81040C9E7401C38BF5FEA420212
:10306000CAD1C3E7BDE810404FEA410313F5001F82
:1030700038BF7047A1F1C04100F0AEBA9EEA445F8C
:1030800008D011EA5E0FBDE8104004BF01F0004116
:1030900000207047BDE8104070B500F04FFA00BF47
:1030A00064FBBE3E0000E0FF02494FF0000000F06C
:1030B000CFBC00BF0000F87F2DE9C04130B4DFF87D
:1030C000A0C23CEA111418BF3CEA131400F0EC80D3
:1030D00081EA03051CEA111444EAD57418BF1CEAFE
:1030E000131500F0C780A4EB05044FF0004545EA36
:1030F000C12145EAC32341EA505143EA525304F146
:103100007F74994204F500344FEAC0204FEAC2228E
:1031100008BF904200F09C804FEA13650FF2401602
:10312000765D4FEA134506FB05F7C7F1807706FB8E
:1031300007F74FEAD737A7FB03687642C8F5803810
:10314000A7FB06CE38BFA8F1010807FB08E64FF041
:10315000000EA6FB028CE6FB03CEDCF1000CCEF1E8
:10316000004E38BFAEF1010EA6FB0C584FF0000721
:103170004FF00005E6FB0E87A1FB08C6A0FB07CEBB
:1031800016EB0E0645F10005E1FB076515F1E04E73
:103190007EBFA4F580345FEA46066D4116F18007D4
:1031A00045F100054FEA17274FEA066647EA05672B
:1031B000A6F1DE46B6F1805F4FEA15251FD93846E5
:1031C00024F0010C05EBC471BCF1FE6F01EB0C1196
:1031D00002D8F0BCBDE8008124425CBF01F5801E2E
:1031E0009EEAC47F02D4F0BCBDE80081244238D4FA
:1031F000F0BCA1F1C041BDE8004100F0EDB94FEADB
:10320000D22242EA43524FEAD323A7FB02864FEA77
:10321000D02040EA415007FB03661EEA0E0F4FEA3A
:10322000D12105FB026658BFA6EB0056B6EB00564F
:103230004FEA520E4EEAC37E18EB0E0E56EB530EBB
:10324000BDD518EB02085E417F1C55F10005B6E7BD
:103250004FF480154FF000074FF000064FF00008C4
:10326000ADE7F0BC4FF0000001F1C04101F00041BA
:10327000BDE8008111EA0C1F0CEA131500D00CE028
:1032800013EA0C1F00F025804FF00000F0BC81EA2B
:10329000030101F00041BDE80081F0BCBDE8004140
:1032A00081EA030100F098B9F0BCBDE8004170B5B7
:1032B00000F044F9097EFC3E00F007B881EA030102
:1032C0004FF0000001F00041704781EA030100F077
:1032D00083B9F0BCBDE800414FF0000021497047C0
:1032E000FFFDFBF9F7F5F4F2F0EEEDEBE9E8E6E4CB
:1032F000E3E1E0DEDDDBDAD8D7D5D4D3D1D0CFCD52
:10330000CCCBCAC8C7C6C5C4C2C1C0BFBEBDBCBB8A
:10331000BAB9B8B7B6B5B4B3B2B1B0AFAEADACAB85
:10332000AAA9A8A8A7A6A5A4A3A3A2A1A09F9F9E5F
:103330009D9C9C9B9A999998979796959594939311
:10334000929191908F8F8E8E8D8C8C8B8B8A8989A8
:10335000888887878685858484838382828181802B
:103360000000FF070000F87F4FEA1153A3F58063C8
:10337000D3F11E03A8BFD3F1200C08DB4FF00042AD
:1033800042EAC12252EA505232FA03F0704709422F
:103390000BD4102BC4BF0020704703F5787CBCF120
:1033A000FF3F05D04FF0FF3070474FF000007047EF
:1033B00070B500F0C3F800BF499224800020704728
:1033C000F0E7B0FA80F310FA03F10AD0C3F11D035D
:1033D00003F580634FEA41504FEA035202EBD121DB
:1033E00070474FF000007047DFF848C170B51CEA25
:1033F000111E1EBF1CEA13159EEA0C0F95EA0C0F56
:1034000000F06F8081EA030423EA4C134EEAD47E75
:1034100021EA4C1141F4801143F48013AE44A1FB26
:10342000024CA0FB0365AEF17F7E361955EB0C050F
:10343000A1FB034C4CF10003A0FB021C16EB0C0695
:10344000654153F10003094218BF46F0010613F429
:10345000007F0BD14FEA03314FEA0530340341EAD4
:10346000155140EA16506FF003020AE04FEAC321FB
:103470004FEAC520F40241EA555140EA56506FF038
:10348000020202EB2E4201EB025585EACE710AD010
:103490005FEA440C18BF24F0004450F1000041F1F1
:1034A000000120EAD47040F2FE7C624500D270BD7B
:1034B000A84214BF4FF080444FF04044002E08BF94
:1034C0000024BEF1806FA8BFA1F1C041BDE87040EB
:1034D00080F282804FF0000001F1C04101F0004114
:1034E00070479EEA0C0F0CEA131518BF95EA0C0FF3
:1034F00006D04FF0000081EA030E0EF0004170BDCF
:1035000000F01CF88900013E00F007B800F009B88F
:103510004FEA430C5FEA5C5C08D081EA030100F0EB
:103520005BB84FEA410C5FEA5C5CF6D14FF00000FB
:10353000014970470000FF070000F87F0EF1020EFE
:103540002EF0030E5EF8046B364205D4012A43EBDD
:10355000030515F5001F12D8012841EB010C1CF5DD
:10356000001F0CD80ED14FEAD17C15F5001F0CEBD3
:103570004C0C0CF1020C08BF4CEBD37C04E04FF078
:10358000080C01E04FEAD37C0CEB4C0526FA05F65B
:1035900006F00706B6F1040C06D20EEB860CBDE869
:1035A00070404CF0010C6047DFE80CF0090B0202A0
:1035B0004FF000414FF00000A1F5002170BD194609
:1035C0001046012851EB010418BFD4F5001484BF44
:1035D000002001F0004170BD0808A0F500114FEA7D
:1035E0003101704710B591EA030F48BF83F00043E3
:1035F0003FF5BAAC841A71EB030C07D212198CF0A8
:10360000004C43EB0C03001B61EB0C01DFF8A4E161
:103610004FEA1154A4EB135C1EEA430F18BF9EEA55
:10362000445F00F0B08023EA6E03524221EA045165
:10363000C3EB6E0338BF5B1EDCF1200E25D322FAEC
:103640000CFE10EB0E0043FA0CFE41EB0E01CCF128
:10365000200E03FA0EFE10EB0E0051F10001CCF12A
:10366000200E29D412FA0EF201EB0451BDE81040ED
:1036700058BF7047401C1CBFB2F1004F7047002874
:103680000CBF491C20F00100704712EB020E43EB07
:10369000030218BF4FF0010E4EEA4202ACF1200CBB
:1036A000DCF11E0E54D943FA0CFE10EB0E0051F162
:1036B000FF31CCF11E0ED5D50EF1010E12FA0EFE21
:1036C000404141EB010101EB445C5FEA5C5C10D9D5
:1036D00010EBDE7001EB045138BFBEF1004FBDE8C6
:1036E000104018BF704700280CBF491C20F0010093
:1036F000704730D24FEAD42C11F5001124F4006445
:103700001BD0B1FA81F20B3AA41AA41ED2F1200305
:10371000914030FA03F31943904001EBCC71002C37
:1037200001EB0451BDE81040A8BF704701F1C04152
:103730004FF0000001F000417047B0FA80F310FA3A
:1037400003F100D110BDE41A173C4805C90AE4E7AB
:1037500001EB045110BD491001EB0451BDE81040CC
:103760004FEA300002E04FF0000170474A0008BF06
:103770000042F8D0B2F5001F28BF704701F00041A9
:103780004FF0000070479EEA445F07D011EA5E0FD9
:10379000BDE8104004BF002100207047BDE8104084
:1037A00070B5FFF7CBFE00BF40DFF63E83F000416F
:1037B000104670470000E0FF43004FEAD30C4FEA89
:1037C0003C0C43401FBF40070CF1605113F0FE4F0B
:1037D00070471CF0006F03D100200CF000417047CF
:1037E0000CF0004343EA507010B540EACC0000F002
:1037F000E4F800BF000000924FEA0001FFF7ECBEC2
:103800004FF000414FF00000A1F50021704700008B
:103810004FF47F0C1CEAD0121EBF1CEAD11392EAAF
:103820000C0F93EA0C0F00F0858090EA010F48BF5F
:1038300042F4807240F4000C41F400002CF07F410F
:1038400020F07F4000B58142A2EB03020FF2081C7A
:10385000ACEB504EC0F100009EF800E04FEA4E0E77
:1038600000FB0EFC38BF49004FEA2C1C02F5FA029F
:103870000CFB0EF34FEACE1E4FEA112C4FEAC1218A
:103880000EEB635E42EB22420EFB0CFC4FEA1C5334
:1038900000FB03114FEA112C4FEA01310EFB0CFC27
:1038A0004FEADC4C00FB0C11C14228BF09184CEB5D
:1038B00003335DF804EB10EB410143EBC250B2F56A
:1038C0007C0F38BF704729D512F0F00F1CBF00F1F4
:1038D000C04000F000407047008182838485868765
:1038E00088898B8C8D8E8F919293959697999A9CBF
:1038F0009D9FA0A2A3A5A7A8AAACAEB0B2B3B5B72E
:10390000B9BCBEC0C2C5C7C9CCCED1D4D7D9DCDF03
:10391000E2E6E9ECF0F3F7FAFE0000004FEA400CB3
:103920000CF1807CBCF17E4F28BF7047B0F1C040E5
:1039300000F089B890EA010F0CEAD11348BF42F4B5
:103940008072624538BF634507D213F47F0F16D0EB
:1039500080EA010000F00040704710B500F02DF83B
:10396000097EFC3E00F005B880EA010000F000404E
:10397000704780EA010000F0004000F064B812F4E3
:103980007F0F04BF0248704780EA010000F05BB877
:103990000000C07FB0FA80F310FA03F2C3F19D0378
:1039A0000AD0D90501EB1220530638BF704700F149
:1039B000010008BF20F0010070470EF1020E2EF04A
:1039C000030E5EF8044B244204D44FEA4102B2F1E4
:1039D0007F4F11D84FEA4003B3F17F4F0CD80ED17F
:1039E0004FEAD07CB2F17F4F0CEB4C0C0CF1020C87
:1039F00008BF4CEBD17C04E04FF0080C01E04FEA2B
:103A0000D17C0CEB4C0324FA03F404F00704B4F16A
:103A1000040C06D20EEB840CBDE810404CF0010CF7
:103A20006047DFE80CF0070802024FF00040A0F505
:103A3000800010BD0846420018BFD2F1807288BFD6
:103A400000F0004010BDFF2141EAD050C005704792
:103A50000CF00F03092B08BF082000F059800A2B37
:103A60000BD0082B18BF704708BF1CF0400F0AD0BE
:103A70004FF000004FF0000170471CF0400F18BFDE
:103A80004FF0004070471CF0100F08D020F070433A
:103A900000F07F4242EAD3014FEA4370704700F0E2
:103AA000604021F07F4242EA000201F07F4040EA9C
:103AB000727070474FF0FF0C4CF4E06C1CEA11532D
:103AC0001CBF9CEA030C9445C2BFDA4201EB0251D1
:103AD0007047002B0DD0BCF1000F0FD0002A01F071
:103AE0000041A4BF41F0E04141F07F614FF0000090
:103AF000704701F000414FF00000704750EA013379
:103B00004FF09B0C18BF4CF0806C7FF4CDAA70472F
:103B10001CF4801F11D01CF4E02F03D06FEACC31CD
:103B2000490070474FF04050EFF3008222F070429E
:103B300042EA000282F3008870474FF000007047AD
:103B4000010202030405060708090A0B0C0D0E0FFB
:103B50001010010202030405060708090A0B0C0DE8
:103B60000E0F10100000000000000000010203040E
:103B7000060708090000000001020304000000001D
:103B800000000000002F00000000070007000014E4
:103B90007F147F1400242A7F2A12006264081323F2
:103BA00000364955225000000503000000001C2289
:103BB0004100000041221C000014083E08140008C7
:103BC000083E0808000000A0600000080808080877
:103BD000000060600000002010080402003E51490F
:103BE000453E0000427F40000042615149460021AD
:103BF00041454B31001814127F10002745454539C7
:103C0000003C4A4949300001710905030036494921
:103C1000493600064949291E0000363600000000DA
:103C20005636000000081422410000141414141425
:103C300000004122140800020151090600324959CE
:103C4000513E007C1211127C007F49494936003EEA
:103C500041414122007F4141221C007F49494941A5
:103C6000007F09090901003E4149497A007F08089F
:103C7000087F0000417F4100002040413F01007F5C
:103C800008142241007F40404040007F020C027F28
:103C9000007F0408107F003E4141413E007F09093A
:103CA0000906003E4151215E007F09192946004660
:103CB000494949310001017F0101003F4040403F37
:103CC000001F2040201F003F4038403F0063140881
:103CD000146300070870080700615149454300005C
:103CE0007F41410000552A552A55000041417F007F
:103CF0000004020102040040404040400000010274
:103D00000400002054545478007F4844443800385C
:103D10004444442000384444487F003854545418E4
:103D200000087E0901020018A4A4A47C007F0804F6
:103D300004780000447D4000004080847D00007FC6
:103D4000102844000000417F4000007C04180478E3
:103D5000007C0804047800384444443800FC2424DF
:103D600024180018242418FC007C080404080048C7
:103D70005454542000043F444020003C4040207CE8
:103D8000001C2040201C003C4030403C00442810D7
:103D90002844001CA0A0A07C004464544C4414148B
:103DA00014141414000000000000000000000000C3
:103DB0000000FC000000000002000000000C020CEB
:103DC000020000000000000090D0BCD0BC900003B6
:103DD000000300001824FE448C00030207020100C7
:103DE0001824D8B04C80000300010201C038E43828
:103DF000E0000102020102020806000000000000CB
:103E000000000000000000F80402000000010204AD
:103E1000000204F800000004020100009060F86055
:103E200090000000010000002020FC202000000085
:103E30000100000000000000000008060000000073
:103E400020202020200000000000000000000000D2
:103E500000000002000000000080601C020004035B
:103E600000000000F8040404F8000102020201004E
:103E70000008FC0000000002030200001884442433
:103E8000180003020202020008042424D8000102E0
:103E90000202010040B088FC800000000003020024
:103EA0003C242424C400010202020100F824242C32
:103EB000C0000102020201000C04E41C0400000026
:103EC00003000000D8242424D800010202020100CB
:103ED00038444444F80000030202010000001000CE
:103EE00000000000020000000000200000000000B0
:103EF00006000000002050880402000000000102BB
:103F00009090909090000000000000000002048853
:103F100050200002010000001804C4241800000012
:103F200002000000F804E494F8000102020202001A
:103F300000E09CF0800002030000030204FC242443
:103F4000D800020302020100F80404040C0001027C
:103F50000202010004FC0404F80002030202010052
:103F600004FC24740C0002030202030004FC247409
:103F70000C00020302000000F0080444CC400001E1
:103F80000202010004FC2020FC04020300000302E2
:103F90000404FC040400020203020200000404FC06
:103FA000040406040403000004FC24D00C040203EF
:103FB0000200030204FC04000000020302020203E8
:103FC000FC3CC03CFC0003000300030004FC30C4C4
:103FD000FC04020302000300F8040404F8000102D8
:103FE0000202010004FC2424180002030200000065
:103FF000F8848404F80001020207050004FC24642C
:104000009800020302000302182424448C000302D7
:10401000020201000C04FC040C0000020302000078
:1040200004FC0000FC04000102020100047C80E0AA
:104030001C040000030000001CE03CE01C00000326
:1040400000030000049C609C0400020300030200C3
:10405000041CE01C04000002030200000C84641C29
:1040600004000203020203000000FE02020000003E
:1040700007040400000E30C0000000000001020030
:10408000000202FE00000004040700000004020415
:104090000000000000000000000000000000080810
:1040A00008080808000002000000000000000000EE
:1040B0000040A0A0C00000010202030204FC202076
:1040C000C00000030202010000C0202060000001C7
:1040D0000202020000C02024FC00000102020302D0
:1040E00000C0A0A0C0000001020202000020F824CD
:1040F00024040002030202000040A0A06020000788
:104100000A0A0A0404FC2020C00002030200030281
:104110000020E4000000000203020000000020E490
:10412000000008080807000004FC80E020200203CB
:10413000020003020404FC00000002020302020069
:10414000E020E020C00003000300030020E0202066
:10415000C00002030200030200C02020C0000001D2
:104160000202010020E02020C000080F0A02010026
:1041700000C02020E0000001020A0F0820E04020DB
:1041800020000203020000000060A0A02000000246
:10419000020203000020F8200000000001020200DB
:1041A00020E00020E00000010202030220E0208065
:1041B00060200000030100006080E08060000003D8
:1041C0000003000020608060200002030003020062
:1041D00020E0208060200808070100000020A06087
:1041E0002000000203020200000020DE02000000A6
:1041F00000070400000000FF00000000000F0000A6
:104200000002DE200000000407000000020102049A
:104210000402000000000000000000000000000098
:104220000000000000000000000000F80000000096
:10423000000000333000000000100C06100C0600D7
:10424000000000000000000040C07840C07840003E
:10425000043F04043F040400007088FC08300000A0
:10426000001820FF211E0000F008F000E0180000F8
:1042700000211C031E211E0000F0088870000000B1
:104280001E2123241927211010160E000000000003
:104290000000000000000000000000E01804020020
:1042A000000000071820400000020418E000000091
:1042B0000040201807000000404080F0804040008F
:1042C0000202010F01020200000000F000000000E5
:1042D0000101011F010101000000000000000000B9
:1042E00080B070000000000000000000000000002E
:1042F00000010101010101010000000000000000B7
:104300000030300000000000000000008060180451
:10431000006018060100000000E010080810E0002E
:10432000000F102020100F00001010F800000000F7
:104330000020203F2020000000700808088870003E
:1043400000302824222130000030088888483000BE
:104350000018202020110E000000C02010F80000DE
:1043600000070424243F240000F808888808080077
:104370000019212020110E0000E01088881800008C
:10438000000F112020110E0000380808C83808005E
:104390000000003F000000000070880808887000DE
:1043A000001C222121221C0000E010080810E0005F
:1043B0000000312222110F00000000C0C0000000E8
:1043C000000000303000000000000080000000000D
:1043D0000000806000000000000080402010080005
:1043E00000010204081020004040404040404000CE
:1043F00004040404040404000008102040800000A9
:104400000020100804020100007048080808F000AD
:104410000000003036010000C030C828E810E0007D
:104420000718272423140B000000C038E000000008
:10443000203C23020227382008F888888870000072
:10444000203F202020110E00C03008080808380046
:10445000071820202010080008F808080810E000BD
:10446000203F202020100F0008F88888E80810005E
:10447000203F20202320180008F88888E808100032
:10448000203F200003000000C0300808083800006A
:1044900007182020221E020008F808000008F8086B
:1044A000203F210101213F20000808F808080000F2
:1044B0000020203F2020000000000808F808080025
:1044C000C08080807F00000008F888C0281808009D
:1044D000203F20012638200008F8080000000000D6
:1044E000203F20202020300008F8F800F8F80800CD
:1044F000203F003F003F200008F830C00008F808C7
:10450000203F200007183F00E01008080810E000D6
:104510000F10202020100F0008F808080808F000ED
:10452000203F210101010000E01008080810E00010
:104530000F18242438504F0008F8888888887000A5
:10454000203F2000030C3020007088080808380045
:104550000038202121221C00180808F8080818003B
:104560000000203F2000000008F808000008F808BC
:10457000001F202020201F000878880000C838086D
:10458000000007380E010000F80800F80008F800E5
:10459000033C0700073C030008186880806818087F
:1045A00020302C03032C30200838C800C8380800FD
:1045B0000000203F2000000010080808C83808004C
:1045C0002038262120201800000000FE02020200F0
:1045D0000000007F40404000000C30C000000000A0
:1045E000000000010638C00000020202FE000000C8
:1045F000004040407F00000000000402020204006E
:1046000000000000000000000000000000000000AA
:104610008080808080808080000202040000000092
:10462000000000000000000000008080808000008A
:104630000019242222223F2008F800808000000078
:10464000003F112020110E0000000080808000003B
:10465000000E112020201100000000808088F8004A
:10466000000E112020103F2000008080808000007C
:10467000001F222222221300008080F088888818E0
:104680000020203F202000000000808080808000EB
:10469000006B94949493600008F800808080000080
:1046A000203F210000203F2000809898000000005B
:1046B0000020203F2020000000000080989800008B
:1046C00000C08080807F000008F8000080808000AB
:1046D000203F24022D302000000808F800000000D0
:1046E0000020203F2020000080808080808080008B
:1046F000203F20003F20003F80800080808000001D
:10470000203F210000203F200000808080800000AA
:10471000001F202020201F008080008080000000DB
:1047200080FFA12020110E0000000080808080000A
:10473000000E112020A0FF808080800080808000FB
:1047400020203F2120000100000080808080800028
:104750000033242424241900008080E0808000009D
:104760000000001F202000008080000000808000EA
:10477000001F202020103F2080808000008080804B
:1047800000010E30080601008080008000808080DB
:104790000F300C030C300F00008080008080800000
:1047A0000020312E0E31200080808000008080802B
:1047B00080818E70180601000080808080808000DB
:1047C0000021302C2221300000000000807C0202F9
:1047D00000000000003F404000000000FF0000001B
:1047E00000000000FF0000000002027C80000000CA
:1047F0000040403F000000000006010102020404E6
:1048000000000000000000000000000000000000A8
:104810000000000000000000000000000000000098
:104820000000000000000000000000000000000088
:1048300000F0F0F0000000000000000000017F0127
:104840000000000000000000001C1C1C0000000014
:1048500000008060301C8C60301C0C0000000000E8
:104860000000000000000000000000000000000048
:1048700000000000000000E00000000000E0000078
:104880000086E69F86868686E69F860000011F01D9
:10489000010101011F010100000080C06020F8201B
:1048A000E0C00000000003070C18FF70E181000069
:1048B0000000070F10107F100F07000080602060BD
:1048C00080000000E02000000F3020309F70DC37B7
:1048D0001030C0000000100E030007181018070069
:1048E0000000C02020E0C0000000000080E01F3871
:1048F000E88703C43C040000070F1810100B070DD5
:104900001010080000808C4C3800000000000000EF
:104910000000000000000000000000000000000097
:10492000000000000000000000000000000080E027
:10493000300804000000000000FEFF01000000003D
:10494000000000000000030F1820400000040830A1
:10495000E0800000000000000000000001FFFE00F9
:1049600000000000004020180F03000000000000BD
:10497000000000000000C000000000000042666669
:104980003C18FF183C66664200000000000003006F
:104990000000000000000000000080000000000097
:1049A000001010101010FF10101010100000000068
:1049B00000000300000000000000000000000000F4
:1049C00000000000000000000000000000000000E7
:1049D00000808C4C38000000000000000000000047
:1049E0000000000000000000001010101010101057
:1049F0001010100000000000000000000000000087
:104A000000000000000000000000000000000000A6
:104A1000000000000000000000001C1C1C00000042
:104A2000000000000000000000000000E0380C0062
:104A30000000000080701C03000000000060380EC1
:104A40000100000000000000000080C06020206025
:104A5000C080000000FEFF010000000001FFFE001A
:104A60000001070E181010180E07010000008080CA
:104A700080C0E000000000000000000000FFFF0018
:104A80000000000000001010101F1F101010000088
:104A90000080402020202060C08000000003030030
:104AA000804020381F070000001C1A191818181819
:104AB000181F00000080C020202060C0800000007F
:104AC000000303001010182FE780000000070F10EC
:104AD000101010180F070000000000000000C0E0D8
:104AE000F000000000C0B088868180FFFF80800059
:104AF000000000000010101F1F1010000000E060F8
:104B0000606060606060000000003F1008080818E6
:104B1000F0E0000000070B101010101C0F03000045
:104B2000000080C040202020E0C0000000FCFF21E9
:104B30001008080818F0E0000001070C1810101009
:104B4000080F03000000C0E06060606060E060008B
:104B5000000003000000E018070000000000000053
:104B6000001F1F00000000000080C06020202020E7
:104B700060C080000087EF2C1818303068CF8300A9
:104B800000070F0810101010180F07000000C0C019
:104B900020202020C0800000001F3F6040404020B7
:104BA00010FFFE0000000C1C101010080F03000086
:104BB00000000000000000000000000000000000F5
:104BC000000E0E0E0000000000000000001C1C1C67
:104BD00000000000000000000000000000000000D5
:104BE00000000000000C0C000000000000000000AD
:104BF00000583800000000000000000000000080A5
:104C00004020100000001028448201000000000035
:104C10000000000000000102040810000000000075
:104C200000000000000000000084848484848484E8
:104C300084848400000000000000000000000000E8
:104C40000000102040800000000000000000000074
:104C50000000018244281000000010080402010036
:104C60000000000000C020201010101030E0C00034
:104C70000003030000F010080C0703000000000010
:104C80001C1C1C0000000000000000C04060202030
:104C90002040C00000FCFF01F00E03C1FE03807F36
:104CA0000001070E08111110110904020000000094
:104CB00080E0E000000000000000807C4340477F6F
:104CC000F880000010181F1000000000131F1C10B7
:104CD00020E0E02020202060C080000000FFFF10C6
:104CE000101010182FE78000101F1F101010101048
:104CF000180F0700000080C0402020202060E00046
:104D000000FCFF0100000000000001000001070E90
:104D1000181010100804030020E0E020202020409C
:104D2000C080000000FFFF000000000001FFFE0047
:104D3000101F1F10101018080E07010020E0E020BF
:104D4000202020202060800000FFFF101010107C29
:104D500000000000101F1F10101010101018060087
:104D600020E0E020202020206060800000FFFF1075
:104D70001010107C00000100101F1F100000000028
:104D800000000000000080C06020202040E0000003
:104D900000FCFF0100004040C0C140400001070E80
:104DA000181010100F0F000020E0E020000000009D
:104DB00020E0E02000FFFF101010101010FFFF0097
:104DC000101F1F1000000000101F1F1000002020E7
:104DD00020E0E020202000000000000000FFFF0095
:104DE0000000000000001010101F1F101010000025
:104DF00000000000202020E0E02020200000000033
:104E0000000000FFFF0000000060E0808080C07FA5
:104E10003F00000020E0E020000020A060202000F3
:104E200000FFFF30187CE3C000000000101F1F10BF
:104E3000000001131F1C181020E0E02000000000FB
:104E40000000000000FFFF00000000000000000064
:104E5000101F1F10101010101018060020E0E0E0C6
:104E600000000000E0E0E02000FF013FFEC0E01E87
:104E700001FFFF00101F1000031F0300101F1F1071
:104E800020E0E0C0000000000020E02000FF000360
:104E9000071C78E08000FF00101F100000000000D9
:104EA000030F1F00000080C060202060C080000051
:104EB00000FEFF010000000000FFFE000001070EE1
:104EC000181010180C07010020E0E02020202020FE
:104ED00060C0800000FFFF2020202020301F0F0036
:104EE000101F1F100000000000000000000080C024
:104EF00060202060C080000000FEFF010000000074
:104F000000FFFE000001070E1111133C7C67210019
:104F100020E0E0202020202060C0800000FFFF1063
:104F20001030F0D0080F0700101F1F100000000302
:104F30000F1C10100080C060202020204040E000A6
:104F400000070F0C1818303060E08100001F0C08BB
:104F500010101010180F07008060202020E0E020C3
:104F6000202060800100000000FFFF000000000121
:104F700000000000101F1F100000000020E0E020D3
:104F8000000000000020E02000FFFF000000000003
:104F90000000FF0000070F18101010101008070085
:104FA0002060E0E02000000020E060200000077F9B
:104FB000F88000807C03000000000000071F1C0731
:104FC0000000000020E0E02000E0E0200020E020E1
:104FD0000007FFF8E01FFFFCE01F00000000031FB8
:104FE0000300011F03000000002060E0A00000207B
:104FF000E0602000000000038F7CF8C60100000084
:105000000010181E130001171F1810002060E0E0A8
:105010002000000020E06020000001073EF8E018BA
:105020000700000000000010101F1F1010000000FB
:1050300000806020202020A0E0E020000000000090
:10504000C0F03E0F0300000000101C1F17101010CE
:10505000101806000000000000FC04040404040012
:105060000000000000FF0000000000000000000041
:10507000007F404040404000000010E00000000081
:105080000000000000000000031C60800000000021
:1050900000000000000000030C7080000000040409
:1050A000040404FC0000000000000000000000FFF9
:1050B00000000000000040404040407F0000000031
:1050C00000000010080C040C081000000000000094
:1050D00000000000000000000000000000000000D0
:1050E00000000000000000000000000000000000C0
:1050F00000000000000000000000000080808080B0
:105100008080808080808080000000040408080087
:10511000000000000000000000000000000000008F
:10512000000000000000000000000000000000007F
:105130000000000000000000000098D8446424240F
:10514000FCF80000000F1F18101010081F1F101887
:105150000020E0F000000000000000000000FFFF61
:10516000180804040CF8F00000001F0F18101010AD
:10517000180F030000000000000000000000000005
:1051800000E0F8180404043C3800000000030F0C91
:1051900010101010080600000000000000000020A1
:1051A000E0F0000000E0F81C04040408FFFF000029
:1051B00000030F18101010081F0F08000000000057
:1051C00000000000000000000000E0F848444444F3
:1051D0004C7870000000030F0C1810101008040029
:1051E0000000000080C0602020E0C0000004040433
:1051F000FFFF040404040000000010101F1F101023
:10520000100000000000000000000000000000008E
:10521000000070F88C04048CF874040C007076CFD5
:105220008D8D8D89C87870000020E0F000000000AE
:10523000000000000000FFFF08040404FCF8000068
:1052400000101F1F100000101F1F100000000000A2
:1052500000606000000000000000040404FCFC008A
:105260000000000000001010101F1F1010100000A0
:10527000000000000000006060000000000000006E
:10528000040404FCFC0000000000C0C08080C07F5B
:105290003F0000000020E0F00000000000000000DF
:1052A0000000FFFF80C0F41C0404000000101F1F5A
:1052B0001100031F1C1010000000202020E0F0004F
:1052C000000000000000000000FFFF0000000000E0
:1052D00000001010101F1F10101000000000000030
:1052E000000000000000000004FCFC0804FCFC08B6
:1052F00004FCFC00101F1F10001F1F10001F1F10B8
:105300000000000000000000000000000004FCFCA1
:1053100008080404FCF8000000101F1F1000001013
:105320001F1F10000000000000000000000000002F
:1053300000E0F0180C04040C18F0E00000030F0C5F
:10534000101010100C0F03000000000000000000FF
:10535000000000000004FCFC080404040CF8F00049
:105360000080FFFF889010101C0F03000000000059
:10537000000000000000000000E0F81C0404040825
:10538000F8FC000000030F1810109088FFFF800049
:10539000000000000000000000000000040404FC05
:1053A000FC100804040C0C001010101F1F1010102B
:1053B00000000000000000000000000000000000ED
:1053C00000003078CCC48484840C1C0000001E18BB
:1053D00010101011190F06000000000000C000009E
:1053E0000000000000040404FFFF040404000000A7
:1053F000000000000F1F1010100C00000000000043
:1054000000000000000000000004FCFE000000049A
:10541000FCFE000000000F1F181010081F0F0800EE
:1054200000000000000000000000000000040C3C30
:10543000FCC40000C43C0C0400000000010F1E0E60
:10544000010000000000000000000000000000005B
:10545000043CFCC400E47CFC84807C040000071F46
:10546000070000071F070000000000000000000008
:10547000000000000004041C7CE4C0341C04040090
:105480000010101C1601131F1C1810000000000053
:10549000000000000000000000040C3CFCC400C43C
:1054A0003C0404000000C080C1370E010000000071
:1054B00000000000000000000000000000001C04CC
:1054C00004C4F47C1C0400000000101C1F17111001
:1054D00010180E0000000000000000F80C0400008E
:1054E00000000000001028EF000000000000000095
:1054F0000000003F60400000000000000000FF00CE
:1055000000000000000000000000FF00000000009C
:10551000000000000000FF00000000000000040C7C
:10552000F80000000000000000000000EF2810005C
:1055300000000000000040603F000000000000008C
:1055400000180602020408102020300800000000A5
:10555000000000000000000000000000000000004B
:10556000000000000000F010101010FF10101010CC
:10557000F000000000000F04040404FF040404040D
:105580000F0000004040405F555555755555555F1B
:10559000404040000040200F094989790909090F5E
:1055A0002040000000FE02424ACA4A4ACA4A4A4211
:1055B00002FE000000FF40504C4340404F50505C02
:1055C00040FF00000000F888888888FF8888888865
:1055D000F800000000001F080808087F88888888F5
:1055E0009F80F00080828282828282E2A2928A86FA
:1055F00082808000000000000040807F00000000EA
:1056000000000000101010FF109008888888FF88A4
:10561000888808000444827F01808040432C102841
:10562000468180000010101010D030FF30D0121CC6
:105630001010000010080402010000FF0000010229
:105640000408100004040484E43C2724242424E4F3
:105650000404040004020100FF0909090949897FC3
:105660000000000000FE225A8600FE929292929262
:10567000FE00000000FF04080700FF4020030C1498
:10568000224140000080402018068000071820407A
:10569000800000000100207028262120202438608E
:1056A0000001010000101292929292929212120244
:1056B000FE0000000000003F101010103F0040806E
:1056C0007F00000080828282FE8282828282FE824D
:1056D00082828000008040300F0000000000FF0048
:1056E000000000001010F01F10F00040E05847408C
:1056F0005060C0004022150816210000FE424242C0
:1057000042FE00001060028C0008F94EC820584F7D
:1057100048C8080004047E8140300F407F00448464
:105720007F0404000008488808C838404040FF2033
:1057300022AC20000020100C030418804020171811
:105740002641F0002030AC632018084848487F48C4
:105750004848080022672212121200FE42424242CA
:1057600042FE00000404E424242424FF24242424EE
:10577000E404040040402722120A06FF060A12220F
:1057800027404000080888C8380C0B0808E80808BB
:1057900008080800020100FF40414141417F4141AA
:1057A00041414000404042CC000444645C47F44422
:1057B000444404000040201F2044444444447F44A7
:1057C00044444400101010FF1050445465C6446413
:1057D000544440000444827F0182824A562322526C
:1057E0004E820200020202020202020202FE40A0F7
:1057F00010080000000000000000000000030C1072
:105800002142F000101010FF9020984828090E281F
:1058100048A818000242817F0040404242427E4236
:10582000424240000010101010101116109050301D
:105830001000000000402010102844424140404029
:10584000404040000808E8292E28E80808C80C0B4A
:10585000E80808000000FF0949897F00000F408028
:105860007F00000000083000FF008884532212CA25
:105870000600000004040201FF00020A1242827FB7
:10588000020202001060028C00F0101010FF1010D5
:1058900010F0000004047E0100FF4242427F4242B9
:1058A00042FF000000F801060000020202020202AC
:1058B00002FE000000FF00000000000000000040A9
:1058C000807F00004042CC0000FE829292FE9292C5
:1058D00082FE000000003F10887F001E1212125E40
:1058E000807F000000024262524A464242425262B7
:1058F000C2020000404044444444447F4444444481
:10590000444040004040C05F5555D5555555555F02
:105910004040400020603F251515FF904729112D7C
:1059200043808000008060F80700FC848484FE824D
:1059300083828000010000FF0000FF402000418EB4
:105940003040F80000001011161010F01010141361
:10595000100000008181414121110D030D112141F1
:105960004181810000002424242424FC22222223BB
:1059700022000000020202020242827F02020202B0
:10598000020202001010D0FF9010E2222222FE221A
:105990002222E200040300FF0001FF0804030001CB
:1059A00046807F000000F888888888FF888888887B
:1059B000F800000000001F080808087F8888888811
:1059C0009F80F000202020BEAAAAAAAAAAAAAABE46
:1059D00020202000008080AFAAAAAAFFAAAAAAAF0E
:1059E00080800000000000C080808080808080FC7B
:1059F00084808080808080C0C0000000000000FFA4
:105A00007F404040404040FF40404040404040FFD9
:105A10007F00000000000000000000000000007F88
:105A20007000000000000000000000000000000006
:105A30000000000000000000000000FCF800000072
:105A40000000000000000000000000000000000056
:105A5000FFFE020202020202020202FFFF02020233
:105A6000020202020202FF03000000000000000028
:105A70001F1F040404040404040404FFFF040404BA
:105A80000404040404041F000000000000000000DF
:105A900000000000000000000000007F3F00000048
:105AA00000000000000000000000000000000000F6
:105AB00000000000000000000000000000000000E6
:105AC000000000000000000000F8F8F0F070200076
:105AD00000000000000000000000000000000000C6
